:1000000000800020BD010000751F0000751F00006A
:10001000751F0000751F0000751F0000411F0000C4
:10002000411F0000411F0000411F0000751F00001C
:10003000751F0000411F0000751F0000311F0000E8
:10004000751F0000751F0000751F0000751F000060
:10005000751F0000751F0000751F0000751F000050
:10006000751F0000751F0000751F0000751F000040
:10007000751F0000751F0000751F0000751F000030
:10008000751F0000751F0000751F0000751F000020
:10009000751F0000751F0000751F0000751F000010
:1000A000751F0000751F0000751F0000751F000000
:1000B000751F0000751F0000751F0000751F0000F0
:1000C000751F0000751F0000751F0000751F0000E0
:1000D000751F0000751F0000751F0000751F0000D0
:1000E000751F0000751F0000751F0000751F0000C0
:1000F000751F000059240000751F0000B91B000087
:10010000751F0000C5070000751F0000751F000067
:10011000751F0000751F0000751F0000751F00008F
:10012000751F0000751F0000751F0000751F00007F
:10013000751F0000751F0000751F0000751F00006F
:10014000751F0000751F0000751F0000751F00005F
:1001500075080000751F0000751F0000751F000066
:10016000751F0000790E0000751F0000751F00004C
:10017000751F0000751F0000751F0000751F00002F
:10018000751F0000751F0000751F0000751F00001F
:10019000751F0000751F0000751F00006915000025
:1001A000B915000041160000FD160000811700007F
:1001B000751F0000751F00000D0A00004E4B4CF229
:1001C000205210B51A804DF628121A8000BF00BFC9
:1001D00001F0D4FE494B4FF010621A60484A9A6011
:1001E000484ADA60484B1A6812F4807204D14749D1
:1001F0000A604FF4A8521A60454B1A7802F00802C0
:10020000D2B21AB11A7842F008021A700023414A99
:100210004148424C02E019599950043399188142DF
:10022000F9D33F4B3F4A002101E043F8041B9342BE
:10023000FBD33D4B00221A603C4B3D4A802103F822
:10024000011B9342FBD13B4B0A221A703A4B2422EA
:100250001A70A02203F8012C384A137803F0020325
:10026000DBB2002BF9D0354A137803F01003DBB270
:10027000002BF9D1314A137803F00C03082BFAD183
:100280002F4B03221A7040225A702C4A137803F025
:100290002003DBB2002BF9D0284A137803F0400387
:1002A000DBB2002BF9D0274A274B1A60274B2022BC
:1002B0001A70224A137803F00C030C2BFAD1244B4A
:1002C00002221A60234A43F8442C234B234A1A6023
:1002D000072243F8042C62B601F0EAFA0B4B1B68C4
:1002E000DC0702D51E4801F063FA02F093FD01F02D
:1002F0004BFE00F0E5FAFEE70E200540308004409A
:10030000823F04000100002B10D0034014D00340B2
:1003100002D007400084FF1FC88FFF1F1433000066
:10032000C88FFF1F5CA8FF1F08ED00E000E400E09D
:100330005FE400E0005006400140064006400640F1
:100340000440064000000301448004400040064091
:1003500048800440C010050014E000E0FF76010072
:1003600000DD6850FFFFFFFFFFFFFFFFFFFFFFFF04
:10037000FFFFFFFFFFFFFFFFFFFFFFFFFFFFFFFF8D
:10038000FFFFFFFFFFFFFFFFFFFFFFFFFFFFFFFF7D
:10039000FFFFFFFFFFFFFFFFFFFFFFFFFFFFFFFF6D
:1003A000FFFFFFFFFFFFFFFFFFFFFFFFFFFFFFFF5D
:1003B000FFFFFFFFFFFFFFFFFFFFFFFFFFFFFFFF4D
:1003C000FFFFFFFFFFFFFFFFFFFFFFFFFFFFFFFF3D
:1003D000FFFFFFFFFFFFFFFFFFFFFFFFFFFFFFFF2D
:1003E000FFFFFFFFFFFFFFFFFFFFFFFFFFFFFFFF1D
:1003F000FFFFFFFFFFFFFFFFFFFFFFFFFFFFFFFF0D
:10040000FFFFFFFFFFFFFFFFFFFFFFFFFEFFFFFFFD
:1004100008B548F6C870074BC1F6FF701B1A062BCB
:1004200000D808BD40F20003C0F20003002BF8D052
:100430009847F6E7CB8FFF1F08B548F6C87048F617
:10044000C873C1F6FF70C1F6FF731B1A9B1003EB54
:10045000D373591000D108BD40F20002C0F200026F
:10046000002AF8D09047F6E710B548F6C874C1F6F0
:10047000FF74237873B9FFF7CBFF40F20003C0F29B
:1004800000032BB143F21430C0F20000AFF3008040
:100490000123237010BD00BF08B540F20003C0F275
:1004A00000034BB143F2143048F6CC71C0F20000A7
:1004B000C1F6FF71AFF3008048F6C870C1F6FF7057
:1004C00003682BB140F20003C0F2000303B1984768
:1004D000BDE80840FFF7B0BF7047FFFF1FB572B619
:1004E000124B70221A70124A412111700F2102F82A
:1004F000011C80221A701A781206FCD562B60D4BC8
:1005000001A918680A2200F093FB0B48002301AAF6
:100510009A5C2AB100EB430101330A2B4A80F6D1E1
:100520000133054A5B00137005B000BD00000240B6
:1005300007000240080002408884FF1F174B1A681A
:1005400042F480521A60164A00231370154A137041
:10055000154A1370154A1370154A1370154A40F264
:10056000133111604FF451715160134AC0F344319B
:100570001170C0F3471100F01F005170907293701A
:1005800013740E4B2C221A700D4B40226FF44B71DA
:100590001A705B184FF400321A60704734800440C0
:1005A0004E90FF1FE58FFF1F5090FF1F4F90FF1FC2
:1005B000E48FFF1F08C0044000C0064003C006408F
:1005C00031E400E0134A137800F0030103F0EC0378
:1005D0000B43410748BF43F01003137000F00F03B3
:1005E000042B04D10C4B1A7842F040021A700B4ACB
:1005F0001378C10603F0EF0348BF43F010031370F4
:10060000054A1378800603F0EF0348BF43F0100358
:100610001370704702C0064006C0064005C0064081
:100620000E4B1B68D80410B503D410BDFFF754FF60
:1006300000E00B4C2378002BF8D10A4A4FF400312C
:100640001160094A0949137040F203120A604A60B6
:10065000074A1370074A137010BD00BF348004406E
:10066000E48FFF1F84E100E003C0064008C004409F
:100670004E90FF1FE58FFF1F1B4B1B68DA042DE90F
:10068000F04106462DD5194B194D1C78194FDFF84E
:100690006C800134272C88BF002415E001F076FC23
:1006A00040280DDC3B781B060ED52B78124A01330F
:1006B000272B88BF002318F8031011702B7003E05C
:1006C000FF2801DDFFF708FF2B78A342E6D00B4B94
:1006D0001E550B4B01221A70044B1C70094BAC22A7
:1006E0001A70BDE8F08100BF348004405090FF1FB5
:1006F0004F90FF1F04C0064007C00640E68FFF1F53
:10070000E48FFF1F03C0064038B54518044603E0D8
:1007100014F8010BFFF7B0FFAC42F9D138BDFFFF71
:1007200010B5044C01E0FFF7D7FE2378002BFAD177
:1007300010BD00BFE48FFF1F044B1878044B1B78DB
:10074000984238BF4030C01A704700BF4E90FF1F1C
:10075000E58FFF1F084B094A19781378994207D093
:1007600001333F2B88BF00230549C85C13707047D5
:100770004FF0FF30704700BF4E90FF1FE58FFF1F07
:100780000E90FF1F074B1A78074B1B789A4206D032
:1007900001333F2B88BF0023044AD05C70474FF0E1
:1007A000FF3070474E90FF1FE58FFF1F0E90FF1F19
:1007B000024B1A78024B1A70704700BFE58FFF1F7B
:1007C0004E90FF1F10B5214B1B7803F02003DBB2C6
:1007D00073B11F4B1F4A18781F49137809780133EA
:1007E0003F2B88BF00238B4202D01C49C854137092
:1007F0001B490B7818465BB2002B15DA134B1B789C
:100800001B0611D5174B184A1C7813789C4202D14D
:100810006C230B7008E00133272B88BF002313499A
:10082000CC5C0B490C70137000F04003DBB25BB181
:10083000064B1B7803F04003DBB22BB10C4B0022BC
:100840001A70074B2C221A7010BD00BF04C006405E
:1008500007C006404E90FF1FE58FFF1F0E90FF1F41
:1008600003C006405090FF1F4F90FF1FE68FFF1FF1
:10087000E48FFF1F08B501F075FF024B01221A60DB
:1008800008BD00BF0C7103400A4B1A6842F4000215
:100890001A60094B00221A604FF46152C3F800211C
:1008A0000322C3F808210122C3F80C21034B1022B4
:1008B0001A6070473C8004400070034008E100E08B
:1008C000F8B50D200121134D134E00F0A1FF202398
:1008D0002B6001F03FFEFFF7D7FF002440F68B2787
:1008E00001F016FA0028FBDD2023336001F0CAF97D
:1008F000C0B2FE2803D101F0ADFE002407E0FF28BE
:1009000005D0BC4203D8054B1B6818550134202381
:100910002B60E5E784F00F4088F00F402893FF1F1D
:100920000846114601F002BA084601F067BA01F024
:100930006FBA01F0CFB901F0A5B901F0E9B9FFFF35
:10094000044B00221A711A73034A4FF47A719960AA
:100950001A6070475490FF1F1031000003689942DD
:1009600010B50FD2447A40180123017903FA02F23C
:100970000A42054A52F8342002D082F8803010BD75
:1009800082F8003110BD00BF60310000064A52F805
:100990003010012381F8003100BF00BF00BF52F8C2
:1009A000302082F880307047603100002DE9F0413E
:1009B0000123054680F8253090F8244014E0E859DA
:1009C000214642460437FFF7C9FF242FF7D195F897
:1009D00026000136FFF7DAFF082E01D104E00026D9
:1009E00000275FFA86F8EAE714F1FF34F7D2BDE892
:1009F000F08190F8253010B5044633B190F8270007
:100A0000FFF7C4FF002384F8253010BDF8B5164B5E
:100A1000164D1A6842F080721A60154B1A6842F03F
:100A200001021A60134B2E681C680FE0237A63B131
:100A300021682F680B68204698472A68E388D21BF4
:100A400012099A42A28088BFE2806469002CEDD12D
:100A5000064B094A1B689B1B1B091380074A118818
:100A60008B4288BF1380F8BDFCED00E0041000E06D
:100A7000001000E06490FF1F6A90FF1F6890FF1F46
:100A800010B508461446114601F038F8204610BD4E
:100A9000084608B500F0EAFF012008BD01F082B861
:100AA00001F038B801F050B801F066B801F03EB876
:100AB00000F0B0BF480800F1376000F5D830B0FB57
:100AC000F1F000F035BF480800F1376010B500F5CF
:100AD000D830B0FBF1F0144600F02AFF2046BDE804
:100AE000104000F069BF10B508461446114601F0E9
:100AF000EBFB204610BD084608B501F097FB01202E
:100B000008BD01F089BC01F03FBC01F057BC01F009
:100B10006DBC01F045BC084601F06EBB01F040BB66
:100B2000480800F1376000F5D830B0FBF1F001F073
:100B3000BBBA480800F1376010B500F5D830B0FBFB
:100B4000F1F0144601F0B0FA2046BDE8104001F083
:100B5000F9BAFFFF044B00221A711A73034A4FF4CB
:100B60007A7199601A6070476C90FF1F30310000F5
:100B7000224B60221A70E1225A70214B214A1978C7
:100B8000214B082901D1012102E00A2907D139218D
:100B9000116013221A601D4B19605A600BE00C297A
:100BA0001A4901D1352000E03D20106012221A6060
:100BB000174B08601A60174B17491B78174A03B187
:100BC00001230B601360164B164A1978164B012946
:100BD00001D880210CE0042901D8842108E00829EB
:100BE00001D8852104E0102901D8862100E0872161
:100BF000116019600D4B01221A70704700400740C8
:100C00009E84FF1F08B003400CB0034008B00B40A7
:100C10000CB00B407D90FF1F20B0034020B00B4074
:100C20009F84FF1F24B0034024B00B407C90FF1F23
:100C300010B50023B0FBF2F402FB1400092801D820
:100C4000303000E03730C85420460CB10133F1E7B2
:100C5000CA185470224605E0885CCC5C8C54C85499
:100C60000132013B9A42F7DB084610BDF0B505465C
:100C70008BB022B90368C9B21B6898472CE0012ADF
:100C800008BF0A2221B930228DF82520212413E043
:100C90002124B1FBF2F002FB1011C9B2092901D8DD
:100CA000303100E037310AAF3E1906F8241C014606
:100CB00010B1013CE4B2ECE733B1013C0AAAE4B262
:100CC00013192D2203F8242C2B6801AF5B682846EA
:100CD0003919C4F1220298470BB0F0BDF0B50C4BA6
:100CE0000C4C1A7842F0020504EBC50682F00102B2
:100CF000706009481A700678002E0CBF8827C82734
:100D000047EA014186F0010644F835100670F0BD4F
:100D1000E890FF1F0080FF1F6091FF1F431E032B01
:100D200010B510D872B6094A52F8230010B14168C4
:100D300042F82310064A018832F81340611A22F85B
:100D4000131062B610BD002010BD00BFD890FF1F69
:100D50004CA8FF1F013803280BD872B6064B53F876
:100D60002030002001E05B680130002BFBD162B62F
:100D700070470020704700BF2C91FF1F70B572B6FE
:100D8000184E194C01239A1912F8012C02F008028E
:100D9000D2B2E2B19900144A54F831502DB902EBA5
:100DA000431308305860114B09E041F0010154F839
:100DB000315065B902EBC103083058600C4B42F862
:100DC00031300C4B1A78013A1A7062B670BD01339B
:100DD000052BD8D162B6074B00221A70BDE87040CF
:100DE00001F010B9AC3000000080FF1F8800400007
:100DF000C80040005691FF1F431E032B30B532D868
:100E00004001194A40F01000101872B6174CE25C0D
:100E1000032A09D8DFE802F016021805083002227A
:100E200013E00830042210E01148124A50F8234021
:100E300014B940F8231002E052F82300416042F850
:100E400023100FE0032200E00522E25410F0080F07
:100E500001F108030A8843600CBF8823C82343EAD2
:100E60000243036062B630BD0080FF1F9490FF1FF5
:100E70002C91FF1F3C91FF1F2DE9F74FA34EA44C6F
:100E8000357805F00403DBB2ABB1A24B1B7883B11C
:100E9000A14A137823B1013BDBB2137003B900BE42
:100EA0009E4A13782BB1013BDBB213700BB900F0F3
:100EB000DBFF0423337005F00802D2B2002A00F0F1
:100EC0007B82974B1B781D094FEA930940F0F9810B
:100ED00004EBC903586854F83930C3F38303013B6A
:100EE0000C2B00F2EB81DFE813F0A401A401E9016F
:100EF000E901E901E901E901E901C001E901E901CB
:100F0000E9010D004368874A01685360864B8748B2
:100F100044F83930864D11600023036001202870A9
:100F200089B240F28165A9422361A36119D8B1F564
:100F3000D06F80F02881B1F5817F00F0D88006D88D
:100F4000802900F0BE80822940F03981BDE040F266
:100F50000230814200F00881B1F5A06F40F02F818E
:100F600031E1B1F5106F10D004D8B1F5086F40F041
:100F70002681A0E042F22100814200F0578100F575
:100F80000070814240F01B8115E19278614B604D09
:100F90001A702B6A180603D5686A083801F032F80F
:100FA000644A08359542F4D1DFF8B091DFF8B0B16A
:100FB0000025A846CA4655F8090005E04368009395
:100FC00001F020F8009B18460028F7D15A4B4AF848
:100FD000050045F80B00E85807E0426800930192CD
:100FE00001F010F8019A009B10460028F5D15851E5
:100FF000524BE850524B23F81800524B18F803207C
:10100000023A032A08D8DFE802F0020402040022B0
:1010100000E0012203F8082008F101080435B8F1C6
:10102000040FC8D1484BDFF83C9100221A7001250B
:101030009846464B05EB0902EB1812F8012C9B0071
:101040001A7002F00802D2B23AB300F0BDFFAB0052
:1010500038B104EB4512083050603D4A44F8332063
:1010600006E044F8330098F80030013388F8003087
:1010700000F0AAFFAB0043F0010338B104EBC30258
:1010800008305060284A44F8332006E044F8330022
:1010900098F80030013388F80030AA0042F00201CD
:1010A000013542F003020023052D44F8313044F8A5
:1010B0003230BED187E0174B264D1B782B7003468C
:1010C00084E0244D2B706B707FE09288042A00D955
:1010D00075E0204D2B706B701F4B9200D3181B785E
:1010E00003F00203DBB2002B6FD028706DE0918813
:1010F00001F07F03042B62DC538803B15FE0164AE2
:1011000089008A18117821F0020156E080200740FA
:101110000080FF1F5F91FF1FE990FF1F7092FF1F6C
:10112000902007404C91FF1FC80040008090FF1F97
:101130006091FF1F8080FF1F2C91FF1F3C91FF1FBC
:101140004CA8FF1F9490FF1F5691FF1F30C801103D
:10115000880040005791FF1FC0200740D890FF1F14
:101160008490FF1FAC300000918801F07F03042BB6
:1011700025DC538803B122E0A04A89008A1811783F
:1011800041F0020119E051889D4B928853F8085CA8
:10119000A3F10C009DB133F80CCC8C4509D133F888
:1011A0000ACC944505D1090A03290CBF2B78038981
:1011B0000CE00C33EAE79178924A117003E08F4B10
:1011C0000F221A7032E01D4600E002238E4AB2F868
:1011D00006904B4538BF9946B9F1400F34BFC84619
:1011E0004FF0400828464146FFF778FDB9EB080963
:1011F000454403D1B8F1400F07D017E0B9F1400FD3
:1012000034BFC8464FF0400800E0C8462846414673
:10121000FFF764FDB9EB0809454402D1B8F1400F6E
:1012200004D17A4B7A4A1D60A2F800900122794BD2
:1012300043E0754B1A8842F221039A4211D1764A53
:101240000023C15C99540133072BFAD1724B1B6800
:10125000862B02D1714B0F221A7000200146FFF736
:101260003DFD6F4B44F8393028E0684BD3F80080DF
:10127000B8F1000F18D0DFF89891B9F800A0BAF1D2
:10128000400F34BF5546402540462946FFF726FD0E
:10129000C5EB0A039BB2A9F800300BB9402D01D170
:1012A00008EB0503594A1360574B1A88B2F5A06F33
:1012B00004D100225A709A785A4B1A700122554B69
:1012C0006DE004EBC90803F00803D8F80420013DE1
:1012D000D9B2A2F10800EDB2002937D000F092FE99
:1012E0005148524B50F82510F1B14A6840F825207A
:1012F00001F10802C8F804205A5D032A0BD8DFE880
:1013000002F002040608032204E0022202E00522A1
:1013100000E004225A5518F0080F0A880CBF8823F1
:10132000C82343EA024342E05A5D032A07D8DFE8B4
:1013300002F040400204002206E0012204E018F01E
:10134000080F0CBF022203225A5532E054F83930FC
:101350001B0C22F8083C23B322F8061C42F8041C9C
:10136000334A344952F8257017B942F8250002E093
:1013700051F825205060304A41F8250032F8151008
:101380005B1822F8153000F01FFE18B10830C8F8BD
:10139000040006E0294B44F839001A7801321A702B
:1013A00007E01F4B264A18F0080F08BF134644F801
:1013B00039300823337063E5E90751D515492048D2
:1013C000204C02230B70204B1A70204B1860986041
:1013D0001F481A61D8609A615C60084B0D20187034
:1013E0001C48FF23037000F8083C02741A4A13706B
:1013F0001A4B9F221A7001230B704AE0C02007404D
:10140000BC3000008092FF1F4C91FF1F8090FF1F97
:101410005491FF1F9420074054A8FF1FE990FF1F1D
:10142000C8004000982007402C91FF1F9490FF1F98
:10143000D890FF1F8490FF1F4CA8FF1F5691FF1FDD
:10144000880040009890FF1FE890FF1F0080FF1F5A
:10145000EC90FF1F882007408C2007408420074025
:101460002B0605D50C4B0D221A70802203F8402C58
:1014700005F00203DBB22BB1084B1A781A70022276
:1014800003F8082C05F01005EDB215B1044B10223D
:101490001A70BDE8FE8F00BFC020074088200740BB
:1014A0008020074008B5FFF719F800231E491A46A7
:1014B0005A50C8180833882B4260F9D11B4B1A6860
:1014C00042F480221A601A4B80221A701978184A46
:1014D0000906FBD4144B1749C3F307200870C3F364
:1014E00007401B0E08750B76FF2301F81C3C01F822
:1014F000143C01F88C3C137843F040031370002136
:10150000012302F8783C02F80C1C02F8883C0A4BD4
:1015100070226FF4507C1A7063444FF400721A60AA
:10152000064B10221A7008BD0080FF1F3480044053
:101530000C2107409C20074049E400E008210740B7
:10154000084B4FF400021A604FF080721A604FF09F
:1015500000721A604FF080621A604FF000621A60E9
:10156000704700BF08E100E0114B10B51C68E004B3
:101570001C6004D50F4BDA680AB1DB689847A104F8
:1015800004D50C4B1A690AB11B699847A20604D509
:10159000084B1A6E0AB11B6E9847E30606D5054B39
:1015A000D3F8842012B1D3F88430984710BD00BF1F
:1015B000A09004406491FF1F1F4B10B51C68E0030E
:1015C0001C6004D51D4B1A680AB11B689847A1031B
:1015D00004D51A4B5A680AB15B689847E20704D5EC
:1015E000164B1A6C0AB11B6C9847A30704D5134B12
:1015F0005A6C0AB15B6C9847200704D50F4B9A6C64
:101600000AB19B6C9847610704D50C4BDA6C0AB1A0
:10161000DB6C9847220304D5084B5A6E0AB15B6E07
:101620009847630306D5054BD3F8802012B1D3F851
:101630008030984710BD00BFA0A004406491FF1FF8
:101640002C4B10B51C6820071C6004D52A4B5A6A25
:101650000AB15B6A9847E10604D5274B9A6A0AB13A
:101660009B6A9847620604D5234BDA6A0AB1DB6AA3
:101670009847230604D5204B1A6B0AB11B6B984779
:10168000A00604D51C4B5A6B0AB15B6B9847E10767
:1016900004D5194BDA6B0AB1DB6B9847A20704D566
:1016A000154B9A6D0AB19B6D9847630704D5124B91
:1016B000DA6D0AB1DB6D9847A00504D50E4BDA6EE2
:1016C0000AB1DB6E9847E10504D50B4B1A6F0AB1DE
:1016D0001B6F9847620504D5074B5A6F0AB15B6FC1
:1016E0009847230504D5044B9A6F0AB19B6F98471E
:1016F00010BD00BFA0B004406491FF1F1E4B10B589
:101700001C68E0071C6004D51C4B9A680AB19B68F2
:101710009847210604D5194B5A690AB15B69984765
:10172000E20604D5154B9A690AB19B69984763078D
:1017300004D5124BDA690AB1DB699847200704D552
:101740000E4B1A6A0AB11B6A9847A10704D50B4BC6
:101750009A6B0AB19B6B9847A20604D5074B1A6D8A
:101760000AB11B6D9847630604D5044B5A6D0AB144
:101770005B6D984710BD00BFA0C004406491FF1F7F
:10178000094B10B51C68A2071C6004D5074B9A6E64
:101790000AB19B6E9847E30704D5044BDA6F0AB190
:1017A000DB6F984710BD00BFA0D004406491FF1FBD
:1017B000044B054900221A600A60044A1060102296
:1017C0001A60704714D0034004D0034000D0034097
:1017D000212810B518D80D4A52F8303093F88042BD
:1017E0003CB1012211B183F8802010BD83F80021A3
:1017F00010BD02EBC00043681A6811B142F0030249
:1018000001E022F002021A6010BD00BF603100004A
:10181000212816D80B4A02EBC00301295B6852F855
:10182000302004D182F880124FF4A27208E0002028
:1018300082F8800211B94FF4807201E040F2031285
:101840001A6070476031000072B60B4B0B491A6882
:101850000B4B1B68096862B6490102D5322A88BF62
:101860000133C2F5BB32FF326021B2FBF1F24FF41B
:101870007A7000FB0320704718E000E004ED00E000
:10188000EC91FF1F70B50446FFF7DEFF05466CB113
:1018900040F2E736FFF7D8FF401BB04203D9013CC6
:1018A00004D005F57A75FEF717FEF3E770BDFFFF6C
:1018B00010B5FFF745FE164B164A174C00204BF6A5
:1018C000FF7118605960282313609360136193615E
:1018D0001362936213639363092222600F4C2060AA
:1018E0006160A360236144F8042C0D4C20600D4816
:1018F00001600D490B608B600C4B1A60FFF738F9E3
:101900000420FFF7BFFFBDE81040FFF7CBBD00BFCD
:10191000048003400C800340008003400490034097
:1019200004800B4008800B400C800B4000800B4073
:10193000164B1A6842F400621A60154A00231370AD
:10194000144A1370144A1370144A1370144A137013
:10195000144A40F2133111604FF451715160124A30
:10196000C0F344311170C0F3471100F01F005170F3
:101970009072937013740D4B2C221A700C4B4022F2
:101980001A700C4B4FF400421A60704734800440C8
:101990005A92FF1FF191FF1F5C92FF1F5B92FF1F86
:1019A000F091FF1F0CB0044000B0064003B00640A9
:1019B0002FE400E004E100E0134A137800F0030193
:1019C00003F0EC030B43410748BF43F010031370CF
:1019D00000F00F03042B04D10C4B1A7842F04002A4
:1019E0001A700B4A1378C10603F0EF0348BF43F0A7
:1019F00010031370054A1378810603F0EF0348BF04
:101A000043F010031370704702B0064006B0064062
:101A100005B006400E4B1B68180510B503D410BD69
:101A2000FEF75AFD00E00B4C2378002BF8D10A4A50
:101A30004FF400411160094A0949137040F2031242
:101A40000A604A60074A1370074A137010BD00BF4E
:101A500034800440F091FF1F84E100E003B00640B1
:101A60000CB004405A92FF1FF191FF1F1B4B1B68E3
:101A70001A052DE9F04106462DD5194B194D1C7854
:101A8000194FDFF86C800134272C88BF002415E043
:101A900000F07CFA40280DDC3B781B060ED52B7835
:101AA000124A0133272B88BF002318F80310117046
:101AB0002B7003E0FF2801DDFEF70EFD2B78A3421B
:101AC000E6D00B4B1E550B4B01221A70044B1C70B9
:101AD000094BAC221A70BDE8F08100BF348004408D
:101AE0005C92FF1F5B92FF1F04B0064007B00640E8
:101AF000F291FF1FF091FF1F03B0064038B5451863
:101B0000044603E014F8010BFFF7B0FFAC42F9D133
:101B100038BDFFFF10B5044C01E0FEF7DDFC237873
:101B2000002BFAD110BD00BFF091FF1F044B1878B5
:101B3000044B1B78984238BF4030C01A704700BF32
:101B40005A92FF1FF191FF1F084B094A1978137829
:101B5000994207D001333F2B88BF00230549C85C59
:101B6000137070474FF0FF30704700BF5A92FF1F4D
:101B7000F191FF1F1A92FF1F074B1A78074B1B7832
:101B80009A4206D001333F2B88BF0023044AD05C21
:101B900070474FF0FF3070475A92FF1FF191FF1FBF
:101BA0001A92FF1F024B1A78024B1A70704700BF3F
:101BB000F191FF1F5A92FF1F10B5214B1B7803F0C4
:101BC0002003DBB273B11F4B1F4A18781F491378EB
:101BD000097801333F2B88BF00238B4202D01C4978
:101BE000C85413701B490B7818465BB2002B15DAEA
:101BF000134B1B781B0611D5174B184A1C7813780A
:101C00009C4202D16C230B7008E00133272B88BF64
:101C100000231349CC5C0B490C70137000F0400397
:101C2000DBB25BB1064B1B7803F04003DBB22BB198
:101C30000C4B00221A70074B2C221A7010BD00BFEB
:101C400004B0064007B006405A92FF1FF191FF1FF3
:101C50001A92FF1F03B006405C92FF1F5B92FF1FAA
:101C6000F291FF1FF091FF1F044B00221A711A73AB
:101C7000034A4FF47A7199601A6070476092FF1FAF
:101C80007832000038B5114C23684BB10F4D2868ED
:101C90004288811801320C7A01888A4212D30CE002
:101CA0000B4B1B7813B94FF0FF340CE00320FFF708
:101CB00035F820600028E9D1F5E700F0A3F900230A
:101CC0002B6000E04280204638BD00BF7C92FF1FA1
:101CD0005F91FF1F10B50C4C23681BB10A4B1B68AA
:101CE0006BB902E0094B1B7813B94FF0FF3010BD00
:101CF0000320FFF713F820600028EFD1F5E75A889A
:101D00009B18187A10BD00BF7C92FF1F5F91FF1FC8
:101D1000044B9888044B1B681BB11A885B88D31A44
:101D2000C01870474CA8FF1F7C92FF1F2DE9F84395
:101D30002D4B2E4DDFF8C08001220C461A7006464E
:101D40004BE02B682BBBDFF8A0904AF2F92798F8FC
:101D5000003013B9244A137014E00420FEF7FAFF90
:101D6000072808D8012389F8003000F02DF92860F1
:101D700078B989F80000013F1D4B01D01A782AB1CB
:101D800001221A704FF0FF30BDE8F883FEF7A4FB84
:101D9000DDE72968164A488800231370C0F1400225
:101DA000944238BF224600F108078018CF194880B6
:101DB000A41A02E0F05CF85401339342FAD1F61809
:101DC0004B883F2B06D940230B800420FFF714F8E3
:101DD00000232B60074B05221A70002CB1D1024B57
:101DE00020461C70BDE8F8837192FF1F7492FF1F9C
:101DF0007892FF1F7092FF1F5F91FF1F07B502AB24
:101E0000012103F8010D1846FFF790FF0EBDFFFFFB
:101E1000F8B5114B1B78EBB1104E114B3468114DD6
:101E200001271F704CB1638800272F700420238086
:101E30002146FEF7E1FF376009E000F0C5F80146F2
:101E400020B104202C70FEF7D7FF00E02F70044B68
:101E500000221A70F8BD00BF5F91FF1F7492FF1F30
:101E60007192FF1F7092FF1F38B50D4B1D78ADB9F1
:101E70000C4C216831B14B8804200B80FEF7BCFF6D
:101E8000256038BD00F0A0F8014620B10420BDE86F
:101E90003840FEF7B1BF044B01221A7038BD00BFB5
:101EA0007192FF1F7492FF1F7092FF1F10B50846BA
:101EB00014461146FEF728FC204610BD084608B51A
:101EC000FEF7DAFB012008BDFEF772BCFEF728BC66
:101ED000FEF740BCFEF756BCFEF72EBCFEF7A0BBDB
:101EE000480800F1B76000F55840B0FBF1F0FEF78C
:101EF00025BB480800F1B76010B500F55840B0FBAD
:101F0000F1F01446FEF71AFB2046BDE81040FEF73C
:101F100059BBFFFF044B00221A711A73034A4FF496
:101F20007A7199601A6070478492FF1FB032000086
:101F3000024B1A6801321A60704700BFEC91FF1F14
:101F400038B50B4C25462368580301D5FEF794FF9E
:101F50002B68590501D500F07FFA2B681A0501D5C9
:101F6000FFF72AFE2368DB04EDD5FEF72BFCEAE73A
:101F70003480044008B5FFF7E3FFFFFF014B102258
:101F80001A807047002005407047FFFFEFF313836E
:101F90009BB9EFF3108098B9EFF3058323B10F2BB2
:101FA00004D9084A985C01E04FF48070EFF3118384
:101FB0003BB1984228BF184670474FF0FF3070473A
:101FC00018467047F0E300E072B60C4A1168B1FAA7
:101FD00081F30B2B02D962B6002070474FF000400E
:101FE00020FA03F021EA0001116062B60449482298
:101FF0005343C8180022CA50426070472C8FFF1FFD
:10200000A080FF1F0C4B4822C31AB3FBF2F30B2B2B
:1020100011D80A4A127822B1094A12780AB1FEF799
:10202000ADBE72B6074A4FF0004121FA03F31168C2
:102030001943116062B67047A080FF1F5691FF1FC1
:102040005F91FF1F2C8FFF1F2DE9F04100240746F1
:102050000D4626463B190A22197928460023FEF729
:1020600005FE2B6880462E211B68284698470134C0
:102070004044032C0644EDD12846F9790A22002376
:10208000FEF7F4FD8019BDE8F081FFFF044B054A1F
:102090001A6000221A715A719A71DA71704700BF82
:1020A0009492FF1FE83200001B4B1A6842F48062D2
:1020B0001A601A4A00231370194A1370194A1370D0
:1020C000194A1370194A1370194B40F213321A60EF
:1020D0004FF451725A60174BC0F344321A70C0F378
:1020E00047125A7000F01F00134A9872022104230D
:1020F00013705174D374114B88221A703C2203F868
:102100000D2C0F4B40226FF44A711A705B184FF47C
:1021100000521A60704700BF348004401E93FF1FB6
:102120009D92FF1F2493FF1F1F93FF1F9C92FF1F71
:1021300040A0044000A0064002A0064010A00640B7
:102140002DE400E0134A137800F0030103F0EC03E0
:102150000B43410748BF43F01003137000F00F0317
:10216000042B04D10C4B1A7842F040021A700B4A2F
:102170001378C10603F0EF0348BF43F01003137058
:10218000054A1378800603F0EF0348BF43F01003BD
:102190001370704702A0064006A0064005A0064046
:1021A0000E4B1B68580510B503D410BDFEF794F90B
:1021B00000E00B4C2378002BF8D10A4A4FF4005171
:1021C0001160094A0949137040F203120A604A601B
:1021D000074A1370074A137010BD00BF34800440D3
:1021E0009C92FF1F84E100E003A0064040A0044051
:1021F0001E93FF1F9D92FF1F38B5094B04461D78A3
:10220000002DFCD120460121FFF702FB2046294684
:10221000FFF7DEFA034B53F83420034B1A6038BD46
:102220009C92FF1F603100002093FF1F1D4B1B6815
:102230005A052DE9F041064632D51B4B1B680BB100
:1022400001221A70194B1A4D1C781A4FDFF86C8056
:1022500001343F2C88BF002415E0FFF797FE40288B
:102260000DDC3B781B060ED52B78134A01333F2B30
:1022700088BF002318F8031011702B7003E0FF28AB
:1022800001DDFEF729F92B78A342E6D00B4B1E5552
:102290000B4B01221A70054B1C700A4BBC221A70A2
:1022A000BDE8F081348004402093FF1F2493FF1F7A
:1022B0001F93FF1F04A0064007A006409E92FF1F29
:1022C0009C92FF1F03A006402DE9F84F254B1B6889
:1022D00006465805884643D5234B1B680BB101229F
:1022E0001A70224DB346A94633E0214B1C782F7853
:1022F00001343F2C88BF0024A74209D01BF8012BD2
:102300001C4B1A551C4B01221A70194B1C7020E0F3
:102310001A4BDFF870A0BC221A70FFF737FE402876
:102320000FDC9AF8003019060FD52B78114A0133CB
:102330003F2B88BF0023D15C114A117089F800300F
:1023400003E0FF2801DDFEF7C7F82B78BB42E4D09D
:10235000D4E706EB08039B45C7D3084BBC221A7091
:10236000BDE8F88F348004402093FF1F1F93FF1FA8
:102370002493FF1F9E92FF1F9C92FF1F03A0064005
:1023800007A0064004A0064010B5044C01E0FEF78B
:10239000A3F82378002BFAD110BD00BF9C92FF1F39
:1023A000044B1878044B1B78984238BF4030C01A51
:1023B000704700BF1E93FF1F9D92FF1F084B094AE5
:1023C00019781378994207D001333F2B88BF002337
:1023D0000549C85C137070474FF0FF30704700BF6D
:1023E0001E93FF1F9D92FF1FDE92FF1F074B1A785F
:1023F000074B1B789A4206D001333F2B88BF00233E
:10240000044AD05C70474FF0FF3070471E93FF1FA7
:102410009D92FF1FDE92FF1F0A4B1B685B050FD5C5
:10242000094B1A7802F0CB021A70084A4021117049
:102430001A7842F034021A70054B1A78054B1A705C
:10244000704700BF3480044003A0064011A006403E
:102450009D92FF1F1E93FF1FF0B5304B1B7813F0AA
:10246000300F20D072B62E4B197831B90F3B402275
:102470001B782C4B1A7062B615E062B62A4B2B4CB7
:102480001A782B4B2B4D1878531C3F2B88BF0023F9
:10249000267883421CBFEE541A46013911F0FF0121
:1024A000F2D1214B1A70244B1B7819465BB2002BDA
:1024B0001FDA1A4A137818061BD5204B204E1F78B6
:1024C000204B1A4D1B78204CBB4209D001333F2BC7
:1024D00088BF00231078F05C287020780728F3D993
:1024E000184A13700D4B1B781A0602D5124B7C222A
:1024F0001A7001F04003DBB27BB1084B1B7803F08C
:102500004003DBB24BB1114B00221A70104B1B6819
:1025100003B11A70084B3C221A70F0BD04A00640AB
:1025200016A0064011A006401E93FF1F07A00640FC
:102530009D92FF1FDE92FF1F03A006402493FF1F02
:102540009E92FF1F1F93FF1F14A006409C92FF1F27
:102550002093FF1F012070B50146FFF759F90020B5
:102560000121FFF755F90A200121FFF751F9092050
:102570000121FFF74DF908200121FFF749F9072054
:102580000121FFF745F906200121FFF741F9052058
:102590000121FFF73DF904200121FFF739F903205C
:1025A0000121FFF735F902200121FFF731F9012060
:1025B0000146FFF70DF900200121FFF709F90A2074
:1025C0000021FFF705F909200021FFF701F9082094
:1025D0000021FFF7FDF807200021FFF7F9F806209A
:1025E0000021FFF7F5F805200021FFF7F1F804209E
:1025F0000021FFF7EDF8104C104E03200021FFF7EB
:10260000E7F840F68C2502200021FFF7E1F831467B
:102610002A46204600F02AFC094B2A461846314635
:1026200000F024FC074A1460074A1060074A0023A0
:102630001370074A137070BD2C93FF1FA084FF1FF7
:10264000B89DFF1F2893FF1F48A8FF1F46A8FF1F24
:1026500045A8FF1F034B01221A701A78002AFCD1EB
:10266000704700BF44A8FF1F38B51D4D28680524DA
:1026700000212246043000F0B3FC686800212246A5
:10268000043000F0ADFCA86800212246043000F0C0
:10269000A7FCE86800212246043000F0A1FC28696C
:1026A00000212246043000F09BFC6869002122468C
:1026B000043000F095FCA86900212246043000F0A7
:1026C0008FFCE86900212246043000F089FC286A6A
:1026D000002104302246BDE8384000F081BC00BF34
:1026E000308FFF1F10B51D4B1D491A7808681B78E5
:1026F0001E32D21080181E33012403F0070304FA9F
:1027000003F30479DBB21C43047148688018047930
:102710001C4304718868801804791C430471C868DC
:10272000801804791C4304710869801804791C43DB
:1027300004714869801804791C4304718869801801
:1027400004791C430471C869801804791C4304711E
:10275000096A8A1811790B43137110BD45A8FF1F30
:10276000308FFF1F2DE9F04FD44A13780133DBB2CD
:10277000092B8FB0137013D900231370D04A11782E
:102780000131C9B2032911700AD91370CD4A1178E9
:1027900031B1CD48CD4904680D6805600C601370F7
:1027A000FFF762FFFFF79EFFC94BC84893E844005C
:1027B000049205969A68DE68069207961A695E6921
:1027C000089209969A69DE691B6ABC4C0C934FF01B
:1027D0000008BB4B0A920B96CDF80C8045465A2256
:1027E00003210746D0F8009094F800A0DDF80CE033
:1027F000039E0FFA82FB0BFB0A995FFA8EFE01FB28
:1028000005994FF00108CDF834E006F0070E08FAFC
:102810000EFE99F8019093F80080C1454FEAE60C4E
:102820005FFA8EFE08D9049E06EB0C0898F8049017
:102830004EEA090988F80490A04ED7F8009096F85F
:1028400000A005F10A08CDF808800FFA82FB029E6D
:1028500093F800800BFB0A9901FB069999F8019007
:10286000C14508D9059E06EB0C0898F804904EEA7D
:10287000090988F8049005F11408D0F80090CDF803
:10288000048094F800A0019E93F800800FFA82FB68
:102890000BFB0A9901FB069999F80190C14508D9EB
:1028A000069E06EB0C0898F804904EEA090988F891
:1028B0000490824ED7F8009096F800A093F800801C
:1028C0000FFA82FB0BFB0A9901FB059999F8859396
:1028D000C14508D9079E06EB0C0898F804904EEA0B
:1028E000090988F80490D0F8009094F800A0029E9E
:1028F00093F800800FFA82FB0BFB0A9901FB069903
:1029000099F88593C14508D9089E06EB0C0898F8FC
:1029100004904EEA090988F80490684ED7F80090B0
:1029200096F800A0019E93F800800FFA82FB0BFB43
:102930000A9901FB069999F88593C14508D9099E22
:1029400006EB0C0898F804904EEA090988F8049000
:10295000D0F8009094F800A093F800800FFA82FB62
:102960000BFB0A9901FB059999F80997C14508D90C
:102970000A9E06EB0C0898F804904EEA090988F8BC
:1029800004904E4ED7F8009096F800A0029E93F85F
:1029900000800FFA82FB0BFB0A9901FB069999F85C
:1029A0000997C14508D90B9E06EB0C0898F80490CE
:1029B0004EEA090988F80490D0F8009094F800A035
:1029C000019E93F800800FFA82FB0BFB0A9901FB32
:1029D000069999F80997C14507D90C9EB4449CF80B
:1029E00004804EEA080E8CF804E0D0F8009094F8C9
:1029F00000A00D9EDDF80C800FFA82FB0BFB0A99FC
:102A000006F1010E01FB059908F1010C0EF0070E0D
:102A10004FF0010808FA0EFE99F8029093F8008032
:102A2000C1454FEAEC0C5FFA8EFE08D9049E06EB16
:102A30000C0898F804904EEA090988F804901F4E93
:102A4000D7F8009096F800A0029E93F800800FFA45
:102A500082FB0BFB0A9901FB069999F80290C1458C
:102A600008D9059E06EB0C0898F804904EEA09096F
:102A700088F80490D0F8009094F800A0019E93F894
:102A800000800FFA82FB0BFB0A9901FB069999F86B
:102A90000290C14508D9069E06EB0C0898F80490F0
:102AA0004EEA090988F80490044ED7F8009096F889
:102AB00000A093F800800FFA82FB0BE045A8FF1FEF
:102AC00046A8FF1F44A8FF1F2893FF1F48A8FF1F09
:102AD000308FFF1F0BFB0A9901FB059999F886932C
:102AE000C14508D9079E06EB0C0898F804904EEAF9
:102AF000090988F80490D0F8009094F800A0029E8C
:102B000093F800800FFA82FB0BFB0A9901FB0699F0
:102B100099F88693C14508D9089E06EB0C0898F8E9
:102B200004904EEA090988F80490B84ED7F800904E
:102B300096F800A0019E93F800800FFA82FB0BFB31
:102B40000A9901FB069999F88693C14508D9099E0F
:102B500006EB0C0898F804904EEA090988F80490EE
:102B6000D0F8009094F800A093F800800FFA82FB50
:102B70000BFB0A9901FB059999F80A97C14508D9F9
:102B80000A9E06EB0C0898F804904EEA090988F8AA
:102B900004909E4ED7F8009096F800A0029E93F8FD
:102BA00000800FFA82FB0BFB0A9901FB069999F84A
:102BB0000A97C14508D90B9E06EB0C0898F80490BB
:102BC0004EEA090988F80490D0F8009094F800A023
:102BD000019E93F800800FFA82FB0BFB0A9901FB20
:102BE000069999F80A97C14507D90C9EB4449CF8F8
:102BF00004804EEA080E8CF804E0D0F800A00D9E88
:102C000094F80090DDF80C8006F1020E19FB02F931
:102C100001FB05AA08F1020C0EF0070E4FF00108A7
:102C200008FA0EFE1AF8099093F80080C1454FEAA1
:102C3000EC0C5FFA8EFE08D9049E06EB0C0898F89F
:102C400004904EEA090988F80490704ED7F800A065
:102C500096F80090029E93F8008019FB02F901FBA0
:102C600006AA1AF80990C14508D9059E06EB0C087A
:102C700098F804904EEA090988F80490D0F800A06A
:102C8000019E94F8009093F8008019FB02F901FB73
:102C900006AA1AF80990C14508D9069E06EB0C0849
:102CA00098F804904EEA090988F80490574ED7F82E
:102CB000009096F800A093F800800FFA82FB0BFBBF
:102CC0000A9901FB059999F88493C14508D9079E93
:102CD00006EB0C0898F804904EEA090988F804906D
:102CE000D0F8009094F800A0029E93F800800FFAAC
:102CF00082FB0BFB0A9901FB069999F88493C14565
:102D000008D9089E06EB0C0898F804904EEA0909C9
:102D100088F804903D4ED7F8009096F800A0019EE8
:102D200093F800800FFA82FB0BFB0A9901FB0699CE
:102D300099F88493C14508D9099E06EB0C0898F8C8
:102D400004904EEA090988F80490D0F8009094F8AD
:102D500000A093F800800FFA82FB0BFB0A9901FB9D
:102D6000059999F80897C14508D90A9E06EB0C0801
:102D700098F804904EEA090988F80490234ED7F891
:102D8000009096F800A0029E93F800800FFA82FB54
:102D90000BFB0A9901FB069999F80897C14508D9D8
:102DA0000B9E06EB0C0898F804904EEA090988F887
:102DB0000490D0F8009094F800A0019E93F8008051
:102DC0000FFA82FB0BFB0A9901FB069999F8089709
:102DD000C14507D90C9EB4449CF804804EEA080E05
:102DE0008CF804E0DDF80C80013508F103080A2DA9
:102DF000CDF80C807FF4F6AC054C2068FDF7D6FDCD
:102E000020680FB0BDE8F04FFDF7F3BD45A8FF1FE8
:102E1000888FFF1F70B543F2FC2643F2FC25C0F2F9
:102E20000006C0F20005761BB61007D0043D002452
:102E300055F8043F01349847A642F9D143F21436BD
:102E400043F2FC25C0F20006C0F20005761B00F03C
:102E50004FFAB61008D0043D002455F8043F013461
:102E60009847A642F9D170BD70BD00BF032A2DE975
:102E7000F00F09D82AB10023CC5CC454013393422B
:102E8000FAD1BDE8F00F7047830702440ED0441C0E
:102E90004D1C15F8017C04F0030623460134294635
:102EA000013504F8027C002EF3D100E0034611F056
:102EB00003046DD0D71A0D1B032F2E6819DDC4F142
:102EC000040C4FEAC4081C1D4FEACC0C55F8047FD3
:102ED000C4EB0209234604310434B9F1030F26FA86
:102EE00008FA07FA0CFB3E464BEA0A0744F8087C4E
:102EF000ECDC9A42C5D901330131013211F8014CA1
:102F000001330131934203F8024CF7D1B9E70C6861
:102F10004033403143F8404C51F83C4C43F83C4C72
:102F200051F8384C43F8384C51F8344C43F8344C91
:102F300051F8304C43F8304C51F82C4C43F82C4CA1
:102F400051F8284C43F8284C51F8244C43F8244CB1
:102F500051F8204C43F8204C51F81C4C43F81C4CC1
:102F600051F8184C43F8184C51F8144C43F8144CD1
:102F700051F8104C43F8104C51F80C4C43F80C4CE1
:102F800051F8084C43F8084C51F8044C43F8044CF1
:102F9000D41A3F2CBBDC11E00C681033103143F81D
:102FA000104C51F80C4C43F80C4C51F8084C43F8B9
:102FB000084C51F8044C43F8044CD41A0F2CEBDCA9
:102FC000032C96DD1C1D0D1D55F8047C161B234695
:102FD000294604340435032E44F8087CF4DC88E7E1
:102FE000032AC9B270B408D82AB10346121803F8EC
:102FF000011B9342FBD170BC70478307024409D088
:10300000441C04F00305234604F8011C0134002D80
:10301000F7D100E00346D51A01EB01243F2D04EB64
:1030200004442CDD1C604033D51A43F83C4C3F2D42
:1030300043F8384C43F8344C43F8304C43F82C4CAC
:1030400043F8284C43F8244C43F8204C43F81C4CDC
:1030500043F8184C43F8144C43F8104C43F80C4C0C
:1030600043F8084C43F8044CDCDC08E01C601033E7
:10307000D51A43F80C4C43F8084C43F8044C0F2D78
:10308000F4DC032D08DD1D1D561B45F8044C032EF2
:103090002B4605F10405F7DC9A42ACD90133013225
:1030A00003F8011C01339342FAD1A4E70015191566
:1030B000000100000084FF1F120000000002000059
:1030C0002A84FF1F43000000000300008484FF1FC8
:1030D00000000000010309041284FF1F000000002B
:1030E000020309046E84FF1F0000000003030904AB
:1030F0008884FF1F000000000000000000000000A6
:1031000000000000FFFFFFFF0000000000000000C3
:1031100029090000210900003B09000037090000CF
:10312000330900002F09000000000000000000002B
:10313000910A0000810A0000AD0A0000A50A000003
:10314000A90A0000A10A0000B50A0000C70A000091
:10315000B10A0000170B00009D0A000000000000EB
:103160004008FE4340A004404408FE4344A00440FD
:103170000018FE4300C004403000FE43309004407D
:103180003400FE43349004401C18FE431CC004402D
:103190001018FE4310C004400818FE4308C0044045
:1031A0000C18FE430CC004400C10FE430CB004404D
:1031B0001010FE4310B004401810FE4318B0044035
:1031C0001C10FE431CB004401410FE4314B0044015
:1031D0000418FE4304C004400010FE4300B0044045
:1031E0000008FE4300A004400408FE4304A004407D
:1031F0000C08FE430CA004400808FE4308A004404D
:103200001418FE4314C004401818FE4318C00440AC
:103210000410FE4304B004400810FE4308B004400C
:103220001400FE43149004404C08FE434CA004409C
:103230000420FE4304D004402410FE4324B0044084
:103240002010FE4320B004402810FE4328B0044064
:103250002C10FE432CB004400020FE4300D004405C
:103260004808FE4348A004401000FE43109004406C
:103270000000000000000000F70A0000E70A00005C
:10328000130B00000B0B00000F0B0000070B0000DE
:10329000210B0000330B00001D0B0000170B00007A
:1032A000030B000000000000000000000000000010
:1032B000BD1E0000AD1E0000D91E0000D11E000082
:1032C000D51E0000CD1E0000E11E0000F31E000010
:1032D000DD1E0000170B0000C91E000000000000EA
:1032E0000000000000000000492000000000000075
:1032F000F8B500BFF8BC08BC9E46704799040000B2
:1033000041090000550B0000691C0000151F00005A
:043310008D2000000C
:103314001201000202000040C016830400010102F1
:10332400030118035400650065006E007300790002
:103334006400750069006E006F0009024300020119
:1033440000C032090400000102020100052400103B
:1033540001052401010104240206052406000107D5
:1033640005820310004009040100020A000000075E
:103374000503024000000705840240000000160314
:10338400550053004200200053006500720069009C
:1033940061006C00040309040C0300000000000039
:1033A40000000000000000000000000000000A040B
:1033B40004040404040404040404040404040404C9
:1033C40004040404040404040404040404040404B9
:1033D40004040404040404040404040404040404A9
:1033E4000404040404040404040404040404040499
:1033F4000404040404040404040404040404040489
:103404000404040404040404040404040404040478
:103414000404040404040404040404040404040369
:103424000303030303030303040404040404040460
:103434000404040404040404040404040404040448
:103444000404040404040303030303030303030441
:103454000404040404040404040404040404040428
:10346400040404040404040404040404040303031B
:10347400020202010101010101000000000000003C
:10348400000000000001010102020203030304041E
:103494000404040403030302020201010100000006
:1034A400000000000000000000010101010101030F
:1034B40003030303030404040404040404040404CD
:1034C40004040404040404010101000001000002D6
:1034D40000000300000300000300000300000300D9
:1034E40000030000010000000303030303030000C2
:1034F40000010100020300030300030300030300AF
:10350400030300020300020200000100020202049D
:103514000404040404040404040404040404040467
:103524000401010100000100000300000300000386
:103534000000030000030000030000030000030078
:103544000002010101000000020300030300030361
:103554000003030003030003030003030003030049
:103564000303000101000101010404040404040430
:103574000404040404040404040404020202000015
:103584000000000300000300000300000300000229
:10359400000002000003000003000003000000001C
:1035A40001000303000303000303000202000202FC
:1035B40000030300030300030300030300000000EF
:1035C40002020204040404040404040404040404BD
:1035D40004040404040303030000000000020000C8
:1035E40003000003000003000003000003000001C7
:1035F40000000200000300000000000003030002BA
:10360400020001010003030003030003030003039A
:103614000003030002020000000004040404040484
:103624000404040404040404040404040404040456
:103634000404020202000000000002000003000073
:103644000300000300000300000300000100000069
:10365400000000000000000000010100030300035B
:10366400030003030003030003030002020000003D
:10367400000303030404040404040404040404040D
:1036840004040404040404040404040404040402F8
:10369400020200000000000100000300000300001B
:1036A4000300000200000000000000000000000011
:1036B40000000000000002020003030003030002F4
:1036C40003000101000101000303030404040404D2
:1036D40004040404040404040404040404040404A6
:1036E400040404040404040404040404030303009D
:1036F40000000000000000000000000000000000C6
:1037040000020000020000020000010000000000AE
:1037140000000000000000000000000000000003A2
:103724000303040404040404040404040404040457
:103734000404040404040404040404040404040445
:103744000404040202020000000202000303000356
:103754000300010100010000030000030000030056
:103764000003000003000003000000000000030049
:103774000003000003000001000000000303030431
:1037840004040404040404040404040404040404F5
:1037940004040404040404040404030303000000F4
:1037A4000303000303000303000101000000000001
:1037B40000000300000300000300000300000300F6
:1037C40000030000000000000000000200000300ED
:1037D40000030000010000000003030304040404C8
:1037E4000404040404040404040404040404040495
:1037F40004040404020202010100030300020200A3
:1038040000000000000000010000010000000000B2
:1038140000000100000100000000000000010000A1
:10382400020000010000000001000003000003008A
:103834000000000303030404040404040404040453
:10384400040404040404040404040403030301013D
:10385400010000000000000000000001000003005F
:10386400000300000300000300000100000000004A
:103874000000000002000003000003000003000039
:103884000300000100000000010000000002020229
:1038940004040404040404040404040404040404E4
:1038A40004040303030101010100000200000000FD
:1038B40000000100000300000300000300000300F7
:1038C40000030000030000000000000100000300EA
:1038D40000030000030000030000030000030000D5
:1038E40001000000020000000000010101030303C5
:1038F400040404040404040404040404020202018D
:1039040000000300000300000000000003000003A7
:103914000000030000030000030000030000030094
:103924000000000000010000030000030000030089
:103934000003000003000003000002010000030074
:103944000003000000000002020204040404040452
:103954000404040404040000000300000300000342
:103964000000000000000300000300000300000347
:10397400000003000003000003000000000000003A
:103984000000030000030000030000030000030024
:103994000003000002010000030000030000010016
:1039A40000010101040404040404040404040404E0
:1039B40000000003000003000002000000000000FB
:1039C40001000003000003000003000003000003E3
:1039D40000000000000000000000000000000003E0
:1039E40000000300000300000300000300000000C7
:1039F40000000300000300000100000101010404B1
:103A04000404040404040404040401010101000086
:103A1400030000010000000000000000000000009E
:103A24000100000200000100000100020200030383
:103A34000003030002020000000000000000000177
:103A4400000001000000000000000000030000036B
:103A5400000000000002020204040404040404043C
:103A64000404040403030300000000000000000039
:103A7400000001000001000000000000000000013F
:103A84000100030300030300030300030300030313
:103A94000003030001010000000000000001010018
:103AA4000203000303000100000000000101010300
:103AB40003030404040404040404040404040404C4
:103AC40004020202000000000003000003000003DF
:103AD40000000300000000000002020003030003D2
:103AE40003000303000303000303000303000202B3
:103AF40000000000010100030300030300030300AE
:103B04000202000000000303030404040404040488
:103B1400040404040404040404040403030300006C
:103B24000000000300000300000300000300000382
:103B34000000000202000303000303000303000368
:103B44000300030300030300010200010100030357
:103B5400000303000303000303000202000000004B
:103B64000404040404040404040404040404040411
:103B7400040404040404040401010100000100001D
:103B84000300000300000300000300000100000024
:103B94000202000303000303000303000303000203
:103BA40002000000000203000303000303000303F8
:103BB40000030300000000020202040404040404DD
:103BC40004040404040404040404040404040404B1
:103BD40004040303030000000000010000030000CC
:103BE40003000003000002000000000000000000C9
:103BF40001010001010000000000000000000003BA
:103C04000300030300030300030300010100010197
:103C14000103030304040404040404040404040466
:103C24000404040404040404040404040404040351
:103C34000303010101000000000001000001000075
:103C44000000000001000002000002000002000069
:103C54000200000100000000000001000101000159
:103C6400010000000002020203030304040404042C
:103C74000404040404040404040404040404040400
:103C840004040404040404040404040404040403F1
:103C94000303010101000000000000020000030012
:103CA4000003000003000003000003000003000001
:103CB40001000000000000000002020203030304EC
:103CC40004040404040404040404040404040404B0
:103CD40004040404040404040404040404040404A0
:103CE4000404040404040404040404040404040391
:103CF40003030202020000000200000300000300AC
:103D040000030000030000010000000000020202A2
:103D14000303030404040404040404040404040462
:103D2400040404040404040404040404040404044F
:103D3400040404040404040404040404040404043F
:103D44000404040404040404040404040404040330
:103D54000303020202000000000000000000010151
:103D6400010202020303030404040404040404041B
:103D740004040404040404040404040404040404FF
:103D840004040404040404040404040404040404EF
:103D940004040404040404040404040404040404DF
:103DA40004040404040404040404040404040404CF
:103DB40004040404040404040404040404040404BF
:103DC40004040404040404040404040404040404AF
:103DD400040404040404040404040404040404049F
:103DE400040404040404040404040404040404048F
:103DF400040404040404040404040404040404047F
:103E0400040404040404040404040404040404046E
:103E1400040404040404040404040404040404045E
:103E2400040404040404040404040404040404044E
:103E3400040404040404040404040404FFFFFFFF52
:103E4400588FFF1F8C8FFF1F988FFF1F708FFF1FCE
:103E5400A48FFF1F7C8FFF1FB08FFF1FBC8FFF1F1E
:103E6400648FFF1F05000100050000000000000032
:103E7400000800000500000000000000000400002D
:103E8400050000000000000000050000050000001F
:103E94000000000000070000308FFF1F0500000035
:103EA4000000000000090000050000000000000000
:103EB400000A0000050000000000000000060000E9
:103EC40005000000000000000002000005000000E2
:083ED4000000000000030000E3
:00000001FF
